:020000040800F2
:1000000000000220B9960008A5050008A705000811
:10001000A9050008AB050008AD05000800000000B8
:10002000000000000000000000000000AF05000814
:10003000B105000800000000B3050008B505000880
:100040000997000809970008099700080997000810
:100050000997000809970008099700080997000800
:1000600009970008099700080997000809970008F0
:1000700009970008099700080997000809970008E0
:100080000997000809970008099700080000000078
:1000900000000000000000000000000009970008B8
:1000A00009970008099700080997000809970008B0
:1000B00009970008099700080997000809970008A0
:1000C0000997000809970008099700080997000890
:1000D0000997000809970008099700080000000028
:1000E0000997000809970008099700080000000018
:1000F0000000000000000000000000000997000858
:1001000000000000099700080997000809970008F7
:1001100000000000000000000000000000000000DF
:10012000099700080997000809970008099700082F
:100130000997000800000000000000000000000017
:10014000000000000000000000000000BD050008E5
:1001500009970008099700080997000809970008FF
:10016000099700080997000800000000000000003F
:10017000000000000000000000000000000000007F
:1001800000000000099700080000000000000000C7
:08019000099700080997000817
:1001A00010B5054C237833B9044B13B10448AFF3B1
:1001B00000800123237010BD980100200000000082
:1001C00000AB000808B5034B1BB103490348AFF36C
:1001D000008008BD000000009C01002000AB00086A
:1001E00010F8012B11F8013B012A28BF9A42F7D0E1
:1001F000D01A70470000000000000000000000005E
:1002000001F0FF01102A2BDB10F0070F08D010F8C7
:10021000013B013A8B422DD010F0070F42B3F6D1CB
:10022000F0B441EA012141EA014122F007047FF0E4
:1002300000070023F0E80256083C85EA010586EA3B
:10024000010685FA47F5A3FA87F586FA47F6A5FA77
:1002500087F68EB9EED1F0BC01F0FF0102F0070283
:1002600032B110F8013B013A83EA010313B1F8D12E
:100270000020704701387047002D06BF354603380F
:10028000073815F0010F07D1013015F4807F02BF48
:10029000013015F4C03F0130F0BC0138704700BF99
:1002A00053B94AB9002908BF00281CBF4FF0FF31DD
:1002B0004FF0FF3000F074B9ADF1080C6DE904CED9
:1002C00000F006F8DDF804E0DDE9022304B0704731
:1002D0002DE9F047089D04468E46002B4DD18A42F9
:1002E000944669D9B2FA82F252B101FA02F3C2F12C
:1002F000200120FA01F10CFA02FC41EA030E9440BD
:100300004FEA1C48210CBEFBF8F61FFA8CF708FBDD
:1003100016E341EA034306FB07F199420AD91CEBB5
:10032000030306F1FF3080F01F81994240F21C81E7
:10033000023E63445B1AA4B2B3FBF8F008FB10332F
:1003400044EA034400FB07F7A7420AD91CEB040464
:1003500000F1FF3380F00A81A74240F20781644434
:10036000023840EA0640E41B00261DB1D4400023B9
:10037000C5E900433146BDE8F0878B4209D9002D1D
:1003800000F0EF800026C5E9000130463146BDE8A7
:10039000F087B3FA83F6002E4AD18B4202D3824211
:1003A00000F2F980841A61EB030301209E46002DC0
:1003B000E0D0C5E9004EDDE702B9FFDEB2FA82F215
:1003C000002A40F09280A1EB0C014FEA1C471FFA73
:1003D0008CFE0126200CB1FBF7F307FB131140EA5A
:1003E00001410EFB03F0884208D91CEB010103F127
:1003F000FF3802D2884200F2CB804346091AA4B2E9
:10040000B1FBF7F007FB101144EA01440EFB00FEBC
:10041000A64508D91CEB040400F1FF3102D2A64521
:1004200000F2BB800846A4EB0E0440EA03409CE7C0
:10043000C6F12007B34022FA07FC4CEA030C20FA6D
:1004400007F401FA06F31C43F9404FEA1C4900FA8D
:1004500006F3B1FBF9F8200C1FFA8CFE09FB18110A
:1004600040EA014108FB0EF0884202FA06F20BD97D
:100470001CEB010108F1FF3A80F08880884240F2CD
:100480008580A8F102086144091AA4B2B1FBF9F011
:1004900009FB101144EA014100FB0EFE8E4508D90C
:1004A0001CEB010100F1FF346CD28E456AD9023891
:1004B000614440EA0840A0FB0294A1EB0E01A14276
:1004C000C846A64656D353D05DB1B3EB080261EBE4
:1004D0000E0101FA07F722FA06F3F1401F43C5E9BE
:1004E000007100263146BDE8F087C2F12003D840F4
:1004F0000CFA02FC21FA03F3914001434FEA1C4736
:100500001FFA8CFEB3FBF7F007FB10360B0C43EA27
:10051000064300FB0EF69E4204FA02F408D91CEBD7
:10052000030300F1FF382FD29E422DD902386344D5
:100530009B1B89B2B3FBF7F607FB163341EA034175
:1005400006FB0EF38B4208D91CEB010106F1FF38C4
:1005500016D28B4214D9023E6144C91A46EA0046BB
:1005600038E72E46284605E70646E3E61846F8E64D
:100570004B45A9D2B9EB020864EB0C0E0138A3E796
:100580004646EAE7204694E74046D1E7D0467BE777
:10059000023B614432E7304609E76444023842E7EF
:1005A000704700BFFEE7FEE7FEE7FEE7FEE77047A5
:1005B0007047704708B503F095F808BD08B50248C4
:1005C00001F007FB08BD00BF9016002082B000219B
:1005D00000910B4B5A6C42F480425A645A6C02F4FC
:1005E00080420092009A01911A6C42F080521A6483
:1005F0001B6C03F080530193019B02B0704700BF56
:1006000000380240014B33F81000704714000020FE
:10061000014B185C704700BF3400002082B0C04B13
:100620001A6B42F010021A631B6B03F01003019364
:10063000019BBC4B1B88BC4A116893FAA3F2002AA9
:1006400000F03782B2FA82F25200032000FA02F27E
:1006500021EA020293FAA3F3002B00F02C82B3FAF2
:1006600083F35B00012101FA03F31343AE4A1360E5
:10067000AC4B1B88516821EA03015160926893FAE0
:10068000A3F3002B00F01982B3FA83F35B0003217C
:1006900001FA03F322EA0303A34A9360A14B1B88E8
:1006A000D26893FAA3F3002B00F00982B3FA83F324
:1006B0005B00032101FA03F322EA03039A4AD360A1
:1006C0009A4B1B88116893FAA3F2002A00F0F98173
:1006D000B2FA82F25200032000FA02F221EA020288
:1006E00093FAA3F3002B00F0EE81B3FA83F35B00DF
:1006F000012101FA03F313438B4A13608B4B1B88D0
:10070000516821EA03015160926893FAA3F3002B28
:1007100000F0DB81B3FA83F35B00032101FA03F3FA
:1007200022EA0303804A9360804B1B88D26893FAC5
:10073000A3F3002B00F0CB81B3FA83F35B0003211A
:1007400001FA03F322EA0303774AD360784B1B884C
:10075000116893FAA3F2002A00F0BB81B2FA82F288
:100760005200032000FA02F221EA020293FAA3F3F4
:10077000002B00F0B081B3FA83F35B00012101FA92
:1007800003F31343684A1360694B1B88516821EADD
:1007900003015160926893FAA3F3002B00F09D814E
:1007A000B3FA83F35B00032101FA03F322EA0303A4
:1007B0005D4A93605E4B1B88D26893FAA3F3002BCB
:1007C00000F08D81B3FA83F35B00032101FA03F398
:1007D00022EA0303544AD360564B1B88116893FAEC
:1007E000A3F2002A00F07D81B2FA82F252000320C7
:1007F00000FA02F221EA020293FAA3F3002B00F0BE
:100800007281B3FA83F35B00012101FA03F313430E
:10081000454A1360474B1B88516821EA0301516028
:10082000926893FAA3F3002B00F05F81B3FA83F38D
:100830005B00032101FA03F322EA03033A4A9360BF
:100840003C4B1B88D26893FAA3F3002B00F04F8136
:10085000B3FA83F35B00032101FA03F322EA0303F3
:10086000314AD360344B1B88116893FAA3F2002AF3
:1008700000F03F81B2FA82F25200032000FA02F245
:1008800021EA020293FAA3F3002B00F03481B3FAB9
:1008900083F35B00012101FA03F31343224A13603F
:1008A000254B1B88516821EA03015160926893FA35
:1008B000A3F3002B00F02181B3FA83F35B00032143
:1008C00001FA03F322EA0303174A93601A4B1B88C9
:1008D000D26893FAA3F3002B00F01181B3FA83F3EB
:1008E0005B00032101FA03F322EA03030E4AD360FB
:1008F000124B1B88116893FAA3F2002A00F00181C1
:10090000B2FA82F25200032000FA02F221EA020255
:1009100093FAA3F3002B00F0F680B3FA83F30FE011
:100920000038024022000020001002402400002075
:1009300026000020280000202A0000202C00002093
:100940005B00012101FA03F313437A4A13607A4BE7
:100950001B88516821EA03015160926893FAA3F35E
:10096000002B00F0D280B3FA83F35B00032101FA7D
:1009700003F322EA03036F4A93606F4B1B88D2682C
:1009800093FAA3F3002B00F0C280B3FA83F35B0069
:10099000032101FA03F322EA0303664AD360674B9B
:1009A0001B88116893FAA3F2002A00F0B280B2FA11
:1009B00082F25200032000FA02F221EA020293FAC4
:1009C000A3F3002B00F0A780B3FA83F35B000121AF
:1009D00001FA03F31343574A1360584B1B885168BD
:1009E00021EA03015160926893FAA3F3002B00F00F
:1009F0009480B3FA83F35B00032101FA03F322EA44
:100A000003034C4A93604D4B1B88D26893FAA3F3BF
:100A1000002B00F08480B3FA83F35B00032101FA1A
:100A200003F322EA0303434AD360454B1B88116852
:100A300093FAA3F2002A74D0B2FA82F25200032091
:100A400000FA02F221EA020293FAA3F3002B6AD021
:100A5000B3FA83F35B00012101FA03F31343354A30
:100A60001360374B1B88516821EA0301516092687B
:100A700093FAA3F3002B58D0B3FA83F35B0003215E
:100A800001FA03F322EA03032A4A93602C4B1B88E2
:100A9000D26893FAA3F3002B49D0B3FA83F35B0037
:100AA000032101FA03F322EA0303224AD36002B0CE
:100AB00070472022C8E52023D3E52023E6E5202344
:100AC000F6E5202206E6202311E6202324E6202353
:100AD00034E6202244E620234FE6202362E620234A
:100AE00072E6202282E620238DE62023A0E6202342
:100AF000B0E62022C0E62023CBE62023DEE620233A
:100B0000EEE62022FEE620231AE720232DE720230D
:100B10003DE720224DE7202358E720236BE72023E1
:100B20007BE720228AE7202394E72023A6E72023DF
:100B3000B5E700BF001002402C0000202E0000206E
:100B40003000002082B0A34B1A6B42F010021A63EF
:100B50001B6B03F010030193019B9F4B1B889F4A63
:100B6000126893FAA3F3002B00F01381B3FA83F316
:100B70005B00032101FA03F322EA0303974A13609F
:100B8000954B1B88D26893FAA3F3002B00F00381E6
:100B9000B3FA83F35B00032101FA03F322EA0303B0
:100BA0008E4AD3608E4B1B88126893FAA3F3002BF6
:100BB00000F0F380B3FA83F35B00032101FA03F33F
:100BC00022EA0303854A1360854B1B88D26893FA97
:100BD000A3F3002B00F0E380B3FA83F35B0003215F
:100BE00001FA03F322EA03037C4AD3607D4B1B889E
:100BF000126893FAA3F3002B00F0D380B3FA83F3C7
:100C00005B00032101FA03F322EA0303734A136032
:100C1000744B1B88D26893FAA3F3002B00F0C380B7
:100C2000B3FA83F35B00032101FA03F322EA03031F
:100C30006A4AD3606C4B1B88126893FAA3F3002BAB
:100C400000F0B380B3FA83F35B00032101FA03F3EE
:100C500022EA0303614A1360634B1B88D26893FA4C
:100C6000A3F3002B00F0A380B3FA83F35B0003210E
:100C700001FA03F322EA0303584AD3605B4B1B8853
:100C8000126893FAA3F3002B00F09380B3FA83F376
:100C90005B00032101FA03F322EA03034F4A1360C6
:100CA000524B1B88D26893FAA3F3002B00F0838089
:100CB000B3FA83F35B00032101FA03F322EA03038F
:100CC000464AD3604A4B1B88126893FAA3F3002B61
:100CD00073D0B3FA83F35B00032101FA03F322EA32
:100CE00003033E4A1360424B1B88D26893FAA3F376
:100CF000002B64D0B3FA83F35B00032101FA03F302
:100D000022EA0303354AD3603A4B1B88126893FAF0
:100D1000A3F3002B55D0B3FA83F35B00032101FA50
:100D200003F322EA03032D4A1360324B1B88D26877
:100D300093FAA3F3002B46D0B3FA83F35B000321AD
:100D400001FA03F322EA0303244AD3602A4B1B88E7
:100D5000126893FAA3F3002B37D0B3FA83F35B0046
:100D6000032101FA03F322EA03031C4A1360224B16
:100D70001B88D26893FAA3F34BB3B3FA83F35B00F7
:100D8000032101FA03F322EA0303144AD36002B0F9
:100D900070472023ECE62023FCE620230CE72023E9
:100DA0001CE720232CE720233CE720234CE72023CB
:100DB0005CE720236CE720237CE720238BE72023BC
:100DC0009AE72023A9E72023B8E72023C7E72023B9
:100DD000D5E700BF0038024022000020001002408A
:100DE0002400002026000020280000202A000020E7
:100DF0002C0000202E0000203000002008B5012823
:100E000002D0FFF79FFE08BDFFF708FCFBE70000DC
:100E1000164B1B8810F0080F17D0154A9361154B1D
:100E20001B8810F0040F14D0114A9361124B1B88D9
:100E300010F0020F11D00E4A9361104B1B8810F076
:100E4000010F0ED00A4A936170471B04084A936150
:100E5000E5E71B04064A9361E8E71B04044A936133
:100E6000EBE71B04024A9361704700BF0A000020B1
:100E7000000C0240080000200600002004000020B2
:100E8000002303E0084A0021D1540133032B0ADC7C
:100E9000064A32F81320064909698A43F2D0024A09
:100EA0000321D154F1E77047340000200C000020EA
:100EB00000080240014B33F81000704718AB0008DF
:100EC000014B33F81000704720AB000808B501292A
:100ED00005D0FFF7EFFF0004034B986108BDFFF753
:100EE000E9FF014B9861F9E70000024008B50129CC
:100EF00005D0FFF7E5FF0004034B986108BDFFF73D
:100F0000DFFF014B9861F9E70000024082B0002347
:100F1000019303E000BF019B01330193019BB3EBFD
:100F2000C00FF7D302B0704708B540F47F00034B01
:100F300098610120FFF7EAFF08BD00BF00100240E2
:100F400010B50120FFF7E2FF034C23690120FFF7F2
:100F5000DDFF2069C0B210BD001002402DE9F04154
:100F600005460C46FFF7ACFF80462846FFF7A2FF78
:100F7000074611E00A4DC5F81880AF61094E3046AA
:100F8000FFF7C4FF4FEA0843AB613B04AB61304657
:100F9000FFF7BCFF013CE4B2002CEBD1BDE8F081CF
:100FA0000000024020A10700F8B5044600252E46A7
:100FB00001E0013CE4B2002C4DD02B4A536903F40C
:100FC000FF336FEA53236FEA43235361274B1B69B7
:100FD00013F0020F01D046F00106244B1B6913F0F9
:100FE000400F01D046F00206204B1B6913F0800F22
:100FF00001D046F004061D4B1B6913F4807F01D01D
:1010000046F008061A4F3846FFF780FF164A536924
:1010100003F4FF3353613846FFF778FF134B1B6926
:1010200013F0020F01D045F00105104B1B6913F0BE
:10103000400F01D045F002050C4B1B6913F0800FE7
:1010400001D045F00405094B1B6913F4807FB0D033
:1010500045F00805ADE70F2E02D115B1012500E0DE
:1010600001252846F8BD00BF0000024000040240F0
:1010700020A1070070B506460FE0094C636983F4B0
:10108000FF736361074D2846FFF740FF636983F4F0
:10109000FF7363612846FFF739FF002EEDD170BD65
:1010A0000000024020A1070008B500220F491048A7
:1010B00002F048FB70B90F490D4802F05AFB60B9C5
:1010C0000D490B4803F050FB50B9094802F06BFB87
:1010D00048B908BD06F07AFCEDE706F077FCEFE7CB
:1010E00006F074FCF1E706F071FCF2E7380000202E
:1010F000B4010020A80000208800002012230B80EB
:10110000004870475400002004230B8000487047BB
:1011100068000020002393421ED200B510E00CF1BD
:10112000370C01F813C000014FEA430C0CF1010C1D
:101130004FF0000E01F80CE00133DBB2934209D20C
:101140004FEA107CB0F1204FE9D20CF1300C01F8DD
:1011500013C0E8E75DF804FB7047000038B50B4B9F
:10116000D3F8100AD3F8144AD3F8183AC01800D1AB
:1011700038BD074D0822A91CFFF7CCFF042205F15A
:1011800012012046FFF7C6FFF2E700BF0070FF1F05
:101190006C00002008B51A230B80FFF7DFFF014821
:1011A00008BD00BF6C00002008B50A4628B90549F3
:1011B000054803F04FF8034808BD0249024803F010
:1011C00049F8F8E79004002028AB000810B50A465B
:1011D000034C2146034803F03DF8204610BD00BFF4
:1011E0009004002040AB000808B50A4628B905491C
:1011F000054803F02FF8034808BD0249024803F0F0
:1012000029F8F8E79004002054AB000808B50A4616
:1012100028B90549054803F01DF8034808BD0249EF
:10122000024803F017F8F8E79004002060AB0008CC
:1012300000207047002070470020704770B50446BA
:101240000D46074E0146304603F0A7FA304603F03C
:10125000CDFA2968204606F05FFB002070BD00BF74
:10126000B401002010B5064C00220649204603F0C8
:1012700086FA0549204603F090FA002010BD00BF11
:10128000B4010020900E002090060020094BD3F8F6
:10129000BC32D3F814320BB10120704710B5054CA5
:1012A0000A460146204603F06AFA204603F081FA16
:1012B00010BD00BFB401002070B588B000230393B7
:1012C00004930593069307930368B3F1A04F01D0ED
:1012D00008B070BD002501951B4C236B43F0010342
:1012E0002363236B03F001030193019B4FF400730D
:1012F0000393164E03A9304602F062F84FF4E05310
:101300000393022304930595032306930A2307936B
:1013100003A9304602F054F8636B43F08003636323
:101320000295636C43F480436364636C03F480430D
:101330000293029B2A462946432002F039F94320B2
:1013400002F06EF9C4E700BF00380240000002401E
:1013500008B500F29C41D0F8E00402F03AFA08BD6A
:1013600008B501EBC10300EB8303D3F86022D0F88A
:10137000E00402F001FB08BD08B501EBC10300EB7E
:1013800083031A6AD0F8E00402F05CFB08BD08B5DC
:10139000D0F8E00402F09BFA08BD10B50446C3790A
:1013A000022B09D10121D4F8E00402F071FAD4F83B
:1013B000E00402F03AFA10BD06F008FBF2E7000084
:1013C00010B50446D0F8E00402F065FA2268D2F8BD
:1013D000003E43F00103C2F8003EE37A23B1034A22
:1013E000136943F00603136110BD00BF00ED00E078
:1013F00008B5D0F8E00402F05DFA08BD08B5D0F8F1
:10140000E00402F08CFA08BD08B5D0F8E00402F060
:101410006FFA08BD08B5D0F8E00402F097FA08BDED
:1014200008B5D0F8E00402F093FA08BD02780AB1DA
:101430000020704710B503461548C0F8E034C3F8E3
:10144000C8024FF0A0430360042303710222C2715B
:101450000023837142728372C37203738373C373F5
:1014600000F0EEF880B90A4C8021204600F0B4FE6E
:1014700040220021204600F089FE802201212046E2
:1014800000F084FE002010BD06F0A0FAEBE700BFDC
:1014900090160020D0F8C83211F0800F08D101F06A
:1014A0007F0101EBC10103EB810191F85602704706
:1014B00001F07F0101EBC10103EB8101887D7047E1
:1014C00008B5D0F8C80200F0BFFA08BD0048704760
:1014D000741B00207047032805D8DFE800F00504DE
:1014E0000205012070470320704708B5D0F8C802F4
:1014F00000F027F9FFF7EFFF08BD08B594461A463C
:101500006346D0F8C80200F0FCF9FFF7E4FF08BD1D
:1015100008B5D0F8C80200F03AFAFFF7DCFF08BDC2
:1015200008B5D0F8C80200F0BDFAFFF7D4FF08BD37
:1015300008B5D0F8C80200F0F8FAFFF7CCFF08BDF4
:1015400008B5D0F8C80200F0C9F9FFF7C4FF08BD1C
:1015500008B5D0F8C80200F080FAFFF7BCFF08BD5C
:1015600008B5D0F8C80200F04AFAFFF7B4FF08BD8A
:101570002DE9F04383B0D0F8008001EBC10300EB0C
:1015800083039A6A5B6A9A4254D807460C469B1AB0
:1015900001EBC10200EB8202D2699A4200D31A46E3
:1015A00002F103094FEA990915E006F103094FEA30
:1015B0009909BB7904EBC40507EB8505296A0093FB
:1015C000B3B2E2B2404601F048F92B6A33442B62D1
:1015D000AB6A3344AB6208EB441303F510639B69B9
:1015E0009BB24B4512D304EBC40207EB8202916A13
:1015F000536A99420AD24BB15B1A04EBC40207EB5F
:101600008202D6699E42D0D31E46CEE704EBC400C8
:1016100007EB80077A6ABB6A9A420FD804F00F047E
:101620000123A340D8F8344824EA0304C8F8344816
:10163000002000E0012003B0BDE8F0830020FAE7BD
:1016400030B583B000287AD00446056890F8953408
:10165000C3B1032384F89534B5F1A04F17D02068A7
:1016600000F0ACFE237C8DF80030231D0ECB2068EB
:1016700000F0E3FD70B1022384F89534012528467B
:1016800003B030BD80F89434FFF716FEE1E7002385
:10169000A371E4E70021206801F004FB024608B9C9
:1016A000034617E0022384F895340125E7E703EBAE
:1016B000C30104EB8101012048750B75CB85002027
:1016C0000876C861086203EBC30104EB810148623C
:1016D0000133DBB220799842E9D816E002EBC2036D
:1016E00004EB8303002183F8551283F8542283F816
:1016F0005812C3F85C12C3F8601202EBC20304EB89
:101700008303C3F864120132D2B29042E6D8237C3C
:101710008DF80030231D0ECB206800F0A5FE054695
:1017200020B1022384F895340125A8E700236374CF
:10173000012384F89534206801F071FA9FE70125B0
:101740009DE7036890F89424012A1AD010B5044646
:10175000012280F89424DA6812F0400F02D0427B14
:10176000012A09D0206800F023FE206801F049FA20
:10177000002084F8940410BD9A6B42F480329A637E
:10178000F0E702207047000070B504460D4600687F
:10179000066C00EB411303F530639A68A1790129C7
:1017A00011D038498E4256D03DB905EBC50304EB44
:1017B0008303D3F86432002B5ED0E9B22046FFF7F2
:1017C000CFFD002070BD12F0080F09D02E498E42C7
:1017D000F7D912F4004FF4D04FF400429A60F0E7CA
:1017E00012F0200F02D020229A60EAE712F0280FB0
:1017F000E7D125498E4206D912F4004F03D04FF4A9
:1018000000429A60DDE705EBC50204EB8202D2F8E4
:1018100074121B69C3F31203CB1AC2F868327DB984
:1018200005EBC50204EB8202D2F864226AB105EB33
:10183000C50204EB8202D2F860120B44C2F8603297
:10184000E9B22046FFF78CFDBBE704F29C42012180
:1018500001F06AFAF4E712F4004F03D04FF40042AB
:101860009A60AEE712F0200F01D020229A60E9B210
:101870002046FFF775FDA4E704F29C42002101F029
:1018800053FA9AE70A31544F0A30544F38B5044698
:1018900003681D6C03EB4113D3F8081B0E4A9542F5
:1018A00007D903F5306311F4004F02D04FF4004222
:1018B0009A602046FFF74CFD074B9D4202D9A37961
:1018C000012B01D0002038BD04F29C420121206888
:1018D00001F02AFAF6E700BF0A30544F90F894342A
:1018E000012B0CD010B50446012380F894344174C8
:1018F000006801F076F9002084F8940410BD0220FD
:10190000704738B505468C4611F0800F2BD101F099
:101910000F0E0EEBCE04A40004F514740444211D34
:101920000EEBCE0E00EB8E0E00208EF855020CF062
:101930000F0C81F800C0C2F30A028A600B714A786A
:101940000AB1A1F81AC0022B1CD095F89434012BCF
:101950001BD0012385F89434286800F060FE002035
:1019600085F8940438BD01F00F0000EBC001890038
:1019700010312944043100EBC00005EB8000012444
:101980004475D4E700234B71DFE70220EAE710B586
:1019900004460A4611F0800F20D101F00F0000EB41
:1019A000C0039B0003F514732344191D00EBC00012
:1019B00004EB8000002380F8553202F00F020A7019
:1019C00094F89434012B18D0012384F894342068BF
:1019D00000F074FE002084F8940410BD01F00F00A4
:1019E00000EBC0039B0010332344191D00EBC00023
:1019F00004EB800001234375DFE70220EDE710B51B
:101A0000144601F00F0C0CEBCC01890001F51471A8
:101A1000014404310CEBCC0E00EB8E0ECEF86022AC
:101A2000CEF864320023CEF868328EF855328EF844
:101A300054C28279012A04D0006800F025FF0020FA
:101A400010BDCEF87042F7E701F00F0101EBC101C4
:101A500000EB8101D1F86802704710B5144601F01F
:101A60000F0C0CEBCC0189001031014404310CEB5C
:101A7000CC0E00EB8E0ECEF82020CEF824300023C2
:101A8000CEF8283001238EF815308EF814C08279F4
:101A90009A4204D0006800F0F7FE002010BDCEF896
:101AA0003040F7E738B501F00F050279AA4238D384
:101AB00004460B4611F0800F1FD101EBC1018900D4
:101AC00001F514710144043103EBC30300EB8303FC
:101AD000002283F8552201238B700D7094F8943402
:101AE000012B20D0012384F89434206801F01EF8E3
:101AF00085B1002084F8940438BD05EBC501890048
:101B000010310144043105EBC50300EB83030122CE
:101B10005A75E0E704F29C42A179206801F004F9CB
:101B2000E7E70120E8E70220E6E701F00F0302798A
:101B30009A4230D310B5044611F0800F1ED103EB4A
:101B4000C301890001F514710144043103EBC302A0
:101B500000EB8202002082F8550200228A700B708E
:101B600094F89434012B18D0012384F8943420681D
:101B700001F009F8002084F8940410BD03EBC301C0
:101B8000890010310144043103EBC30200EB8202EF
:101B900001205075E1E7012070470220EDE708B50C
:101BA00011F0800F0CD101F00F0101EBC101890090
:101BB00001F5147101440431006800F0EFFD08BD27
:101BC00001F00F0101EBC101890010310144043122
:101BD000F2E72DE9F04F83B004460568284601F08E
:101BE0005DF810B103B0BDE8F08F0646206801F043
:101BF00024F80028F6D005F50067BB68C3F30D2371
:101C0000C4F8D434206801F018F810F0020F04D0A2
:101C10002268536903F002035361206801F00DF854
:101C200010F0100F13D02268936923F01003936112
:101C3000D5F8208008F00F09C8F34343022B4BD09E
:101C4000062B6FD02268936943F0100393612068DC
:101C500000F0F3FF10F4002F76D1206800F0EDFFC4
:101C600010F4802F40F0E080206800F0E6FF0028AC
:101C7000C0F26181206800F0E0FF10F4006F09D02D
:101C8000BB6813F0010F40F06E812268536903F4C2
:101C900000635361206800F0D0FF10F4805F40F0D3
:101CA0006681206800F0C9FF10F4005F40F0B38146
:101CB000206800F0C2FF10F0080F40F0C4812068D7
:101CC00000F0BBFF10F0800F00F0D781AB6923F06C
:101CD0008003AB610126C0E147F6F07318EA030FF9
:101CE000B0D04FEA181B4FEAC903019309EBC90AA8
:101CF00004EB8A0AC8F30A12DAF86012284600F0E8
:101D0000EBFECBF30A0BDAF860325B44CAF86032C0
:101D1000019B4B4404EB8303D3F868325B44CAF85D
:101D200068328FE7082204F29C41284600F0D4FE76
:101D3000C8F30A1809EBC90204EB8202D2F8683230
:101D40004344C2F868327DE7206800F07AFF80469D
:101D5000B14635E005EB49130122C3F8082B49468B
:101D60002046FFF711FD3CE005EB49130822C3F8BC
:101D7000082B49462046FFF789FD35E009EBC903EA
:101D800004EB830393F85732012B41D005EB491341
:101D90000222C3F8082B1AF0200F04D005EB4913D8
:101DA0002022C3F8082B1AF4005F05D005EB491375
:101DB0004FF40052C3F8082B09F101094FEA580803
:101DC000B8F1000F3FF449AF18F0010FF4D05FFAFB
:101DD00089FB5946206800F044FF824610F0010F4D
:101DE000B8D11AF0080FBFD11AF0100F04D005EBCC
:101DF00049131022C3F8082B1AF0020FCBD06B69DD
:101E000013F0800FBAD07B6843F480637B60B5E742
:101E100009EBC90304EB8303002283F857225946D8
:101E20002046FFF7EBFAB1E7206800F012FF80468A
:101E3000B14625E059462046FFF79EFA1AF0080FF2
:101E400004D005EB49130822C3F808291AF0100F33
:101E500004D005EB49131022C3F808291AF0400FEB
:101E600004D005EB49134022C3F808291AF0020FE9
:101E700040D11AF0800F59D109F101094FEA5808F1
:101E8000B8F1000F3FF4F0AE18F0010FF4D05FFA94
:101E900089FB5946206800F0EDFE824610F0010FE4
:101EA000CCD009F00F03012101FA03F27B6B23EA86
:101EB00002037B6305EB4913C3F80819A3798B422E
:101EC000B8D109EBC90304EB8303D9691A6A0A4440
:101ED0001A62B9F1000FADD109EBC90304EB83031A
:101EE0005B6A002BA6D104F29C420121206800F01D
:101EF0001BFF9FE74946284600F066FA09EBC90335
:101F000004EB8303DB7D012B05D005EB4913022293
:101F1000C3F80829ADE709EBC90304EB83030022EA
:101F2000DA7559462046FFF76FFAEEE74946204634
:101F3000FFF71EFBA0E77B6823F001037B6094F8AA
:101F4000CC34012B08D02046FFF752FA226853699F
:101F500003F0004353618DE6002184F8CC14204641
:101F600000F03EF9F2E72046FFF72AFA8DE67B689B
:101F700023F001037B601021206800F025FA1AE0AD
:101F800005EB46134FF67F31C3F80819D3F8002943
:101F900022F40012C3F80029C3F8081BD3F8002B61
:101FA00022F40012C3F8002BD3F8002B42F0006299
:101FB000C3F8002B01362379B342E1D8FB6943F023
:101FC0000113FB61E37BDBB1D7F8843043F00B03F3
:101FD000C7F884307B6C43F00B037B64D5F8003882
:101FE00023F4FE63C5F8003804F29C42A17920680E
:101FF00000F09AFE2268536903F48053536150E65F
:102000007B6943F4005343F02B037B613B6943F04E
:102010000B033B61E2E7206800F075FE206800F0EA
:10202000EDFAE071266801F0C5F90146E279304623
:1020300000F04CF92046FFF7B0F92268536903F429
:102040000053536134E62046FFF7A1F92268536933
:1020500003F00803536132E601362379B3420CD909
:1020600006EBC60304EB830393F85732012BF3D13D
:10207000F1B22046FFF793FDEEE7206800F0DDFDAA
:1020800010F4801F25D1206800F0D7FD10F4001F48
:1020900058D0012326E001362379B3421BD905EB42
:1020A0004613D3F8002906EBC60304EB83031B7E1B
:1020B000012BF0D1002AEEDA06EBC60304EB830312
:1020C0000122DA7566F07F01C9B22046FFF767FD8D
:1020D000E1E70126E0E72268536903F480135361C6
:1020E000D1E7013322799A4227D905EB4312D2F87E
:1020F000001B03EBC30204EB820292F85822012A70
:10210000EFD10029EDDAD4F8D42482EA114212F09A
:10211000010FE6D103EBC30204EB8202012182F836
:102120005712AA6942F08002AA616A6912F0800F10
:10213000D7D17B6843F400737B602268536903F452
:1021400000135361206800F078FD10F0804F10D12B
:10215000206800F072FD10F0040F3FF443AD2368D7
:102160005D6815F0040F0DD1226853682B4353604E
:1021700038E52046FFF74EF92268536903F08043A3
:102180005361E5E72046FFF74BF9EDE710B404682B
:10219000606A31B940EA0240A06200205DF8044B59
:1021A00070478C46A36A00EB1340002308E003F15C
:1021B000400104EB8101496800EB11400133DBB2BF
:1021C0000CF1FF318B42F2D340EA02400CF13F01A7
:1021D00004EB81014860E0E7036859620020704722
:1021E000704782B000230193019B01330193019B4F
:1021F000B3F1706F1CD80369002BF5DA0A23019341
:1022000002E0019B013B0193019B002BF9D1036983
:1022100043F001030361019B01330193019BB3F17F
:10222000706F08D8036913F0010FF4D1002000E0AB
:10223000032002B070470320FBE784B010B50446CA
:1022400003A880E80E009DF81130012B21D1A36B6B
:1022500023F48033A363E36823F4840323F040036F
:10226000E360E36823F44013E3609DF81830012B2A
:102270000AD02046FFF7B5FF9DF80E30012B1CD089
:10228000BDE8104004B07047E36843F48013E36096
:10229000EFE7E36843F04003E3602046FFF7A1FF68
:1022A0009DF8153023B9A36B43F48033A363E3E7B0
:1022B000A36B23F48033A363DEE7A36843F0060334
:1022C000A360A36843F02003A360D9E7022A0AD0E1
:1022D0000921C26822F47052C260C36843EA8123B4
:1022E000C36000207047234B0B44234A93422FD9ED
:1022F000224B0B44224A93422CD9A1F57403A3F537
:102300001053204A934227D9A1F18373A3F5E743E1
:102310001D4A934222D31D4B0B441D4A93421FD9A1
:102320001C4B0B441C4A93421CD31C4B0B441C4AB1
:10233000934219D3A1F1B773A3F55853194A9342A5
:1023400014D3194B0B44194A934211D20721C0E709
:102350000F21BEE70E21BCE70D21BAE70C21B8E73B
:102360000B21B6E70A21B4E70921B2E70821B0E75B
:102370000621AEE7405327FFFF340C00401E1BFF31
:102380003F420F007F4F120020D6130060B6E5FEDB
:102390005FE3160000D3CEFE40771B00C05BB3FEA8
:1023A000C091210020753800E05459FEE09C4100A6
:1023B000836843F00103836000207047836823F043
:1023C000010383600020704782B000230193019BCA
:1023D00001330193019BB3F1706F15D80369002B92
:1023E000F5DA00230193890141F020010161019B8D
:1023F00001330193019BB3F1706F08D8036913F0A7
:10240000200FF4D1002000E0032002B07047032029
:10241000FBE782B000230193019B01330193019BF1
:10242000B3F1706F13D80369002BF5DA0023019321
:1024300010230361019B01330193019BB3F1706F82
:1024400008D8036913F0100FF4D1002000E0032036
:1024500002B070470320FBE7D0F800381943C0F8FA
:10246000001800207047000084B0F8B5044607A8A3
:1024700080E80E00002306E003F1400204EB820234
:102480000021516001330E2BF6D99DF8266006BB62
:10249000D4F8043843F00203C4F80438A36B43F4BF
:1024A0000013A363A36B23F40023A363A36B23F4A0
:1024B0008023A3630023C4F8003E9DF82130012B44
:1024C00015D19DF81F306BB900212046FFF7C4FFDE
:1024D00011E0A36B23F40013A363A36B43F4002365
:1024E000A363E7E701212046FFF7B6FF03E00321DE
:1024F0002046FFF7B1FF10212046FFF765FF054694
:1025000000B101252046FFF784FF00B1012504F545
:10251000006C0023CCF81030CCF81430CCF81C3010
:102520000AE0CBB94FF00060C2F8000900220A614E
:102530004FF67F328A6001339DF81C10994210D902
:1025400004EB431202F51061D2F800090028E8DB21
:102550000020C2F80009E9E74FF09040C2F80009F6
:10256000E4E700230AE0BBB14FF09047C2F8007BDC
:10257000002202614FF67F3282600133994210D906
:1025800004EB431202F53060D2F8007B002FEADB47
:102590000027C2F8007BEBE74FF00067C2F8007B32
:1025A000E6E7DCF8103023F48073CCF81030002319
:1025B000A3616FF0804363619DF81E301BB9A3696E
:1025C00043F01003A361A2690B4B1343A3619DF871
:1025D00022301BB1A36943F00803A361012E04D08C
:1025E0002846BDE8F84004B07047A36943F0804333
:1025F00043F00403A361F3E700383C80D0F80838C7
:1026000013F0060307D0022B07D0062B01D00F20B2
:10261000704702207047002070470220704710B5B5
:1026200091F800C04B78012B23D000F5006ED0F854
:102630001C380CF00F040122A24043EA0243C0F808
:102640001C3800EB4C10D0F8003B13F4004F0ED1B7
:10265000D0F8003B8A68C2F30A02097942EA814253
:10266000134343F0805343F40043C0F8003B002081
:1026700010BDD0F81C280CF00F0E03FA0EF39BB21D
:102680001343C0F81C3800EB4C10D0F8003913F499
:10269000004FECD1D0F800398A68C2F30A020979F8
:1026A00042EA814242EA8C5C43EA0C0343F08053E5
:1026B00043F40043C0F80039D9E7000030B40B7888
:1026C0004A78012A26D000EB4313D3F8002B002AC6
:1026D00052DBD0F83C480A7802F00F024FF0010CB0
:1026E0000CFA02F224EA0242C0F83C28D0F81C2876
:1026F000097801F00F010CFA01FC22EA0C42C0F843
:102700001C28D3F8001B234A0A40C3F8002B0020E2
:1027100030BC704700EB4313D3F80029002A1EDBBE
:10272000D0F83C580A7802F00F02012404FA02F2B1
:1027300092B225EA0202C0F83C28D0F81C28097899
:1027400001F00F018C40A4B222EA0404C0F81C4836
:10275000D3F80019104A0A40C3F80029D7E7D3F884
:10276000002942F00062C3F80029D3F8002942F0A2
:102770008042C3F80029D3E7D3F8002B42F000626F
:10278000C3F8002BD3F8002B42F08042C3F8002B93
:102790009FE700BF0078F3EF007833EC10B483B00C
:1027A000024600230193487801280BD00B7802EBF6
:1027B0004313D3F8000B00282DDB002003B05DF895
:1027C000044B70470B7802EB4313D3F80049002CFD
:1027D00001DB0020F2E7D3F8004944F00064C3F8BD
:1027E00000490B7802EB4313D3F8004944F08044CE
:1027F000C3F80049019B01330193019C42F210731D
:102800009C42DBD80B7802EB4313D3F80039002B42
:10281000F0DB0020D2E7D3F8000B40F00060C3F8F3
:10282000000B0B7802EB4313D3F8000B40F0804011
:10283000C3F8000B019B01330193019842F210731E
:10284000984208D80B7802EB4313D3F8003B002BD7
:10285000F0DB0020B2E70120B0E710B59DF808409A
:1028600084B903334FEA930E4FF0000C08E000EBFD
:10287000023303F5805351F8044B1C600CF1010C3A
:10288000F445F4D3002010BDF0B583B00C784B783C
:10289000012B2FD000EB441C0CF530631D69ED0CAF
:1028A000ED041D611D6925F0FF5525F4C0151D615E
:1028B000002C40F0D2800C690CB18C680C618C68E3
:1028C0000C621D69C4F312042C431C611C6944F49E
:1028D00000241C61012A00F0E3800B79012B00F039
:1028E000E580DCF8003B43F00443CCF8003B0020DB
:1028F00003B0F0BD0B6983BB00EB4413D3F8105950
:1029000025F0FF5525F4C015C3F81059D3F8105918
:1029100045F40025C3F81059D3F81059ED0CED0417
:10292000C3F81059012A56D000EB4414D4F80039EA
:1029300043F00443C4F800390B79012B74D00B69C0
:10294000002BD4D0D0F834380A7802F00F010122DD
:102950008A401343C0F83438C9E700EB441303F549
:1029600010631D69ED0CED041D611D6925F0FF5517
:1029700025F4C0151D6184B90E698D68AE4200D979
:102980000D611D6945F400251D611D690E69C6F3C1
:10299000120C45EA0C051D61C4E70D698E683544CB
:1029A000013DB5FBF6F51E691FFA85FC494F07EAA4
:1029B000C54535431D610D79012DE6D11D6925F011
:1029C000C0451D611D694FEA4C7C0CF0C04C45EAC6
:1029D0000C051D61D9E7CB691BB100EB4412C2F8AD
:1029E00014390B79012B08D000EB4410D0F80039D2
:1029F00043F00443C0F8003979E7D0F8083813F4FD
:102A0000807F08D100EB4412D2F8003943F0005324
:102A1000C2F80039E8E700EB4412D2F8003943F07D
:102A20008053C2F80039DFE7D0F8083813F4807F0C
:102A30000CD1D4F8003943F00053C4F800390092A7
:102A40000B8A0A78C968FFF708FF50E7D4F8003905
:102A500043F08053C4F80039F1E70C6954B91C699C
:102A60008D68C5F312052C431C611C6944F40024D5
:102A70001C612FE78D682C44013CB4FBF5F4A4B233
:102A800004FB05F50D621D69124E06EAC4442C4391
:102A90001C611C690D6AC5F312052C431C6119E702
:102AA000CA68002A3FF419AF5A6116E7D0F808380F
:102AB00013F4807F06D1DCF8003B43F00053CCF8E0
:102AC000003B0EE7DCF8003B43F08053CCF8003BC2
:102AD00007E700BF0000F81F00B583B08446084632
:102AE0004FEA920E02F00302002305E00CF580513C
:102AF000096840F8041B01337345F7D39AB10CF50C
:102B0000805CDCF8003001934FF0000C5FFA8CF32E
:102B1000D900019BCB4000F8013B0CF1010C013ABC
:102B200092B2002AF2D103B05DF804FB0B784A7828
:102B3000012A14D000EB4310D0F8002B002A06DB4A
:102B40002BB1D0F8003B23F08043C0F8003BD0F815
:102B5000003B43F40013C0F8003B0020704700EB3B
:102B60004310D0F80029002A06DB2BB1D0F8003939
:102B700023F08043C0F80039D0F8003943F4001343
:102B8000C0F80039E9E70B784A78012A0ED000EB4B
:102B90004310D0F8003B23F40013C0F8003B0B793E
:102BA000023BDBB2012B15D90020704700EB43102C
:102BB000D0F8003923F40013C0F800390B79023B38
:102BC000DBB2012BF0D8D0F8003943F08053C0F8C5
:102BD0000039E9E7D0F8003B43F08053C0F8003BF0
:102BE000E2E7D0F8003823F4FE63C0F80038D0F8EC
:102BF0000038090101F4FE611943C0F800180020F3
:102C00007047D0F8003E23F00303C0F8003ED0F830
:102C1000043823F00203C0F8043800207047D0F8CD
:102C2000003E23F00303C0F8003ED0F8043843F020
:102C30000203C0F8043800207047426980691040E0
:102C40007047D0F8183800F50060C0691840000CD3
:102C50007047D0F8183800F50060C069184080B29D
:102C6000704700EB4111D1F8082B00F50060406976
:102C70001040704710B4D0F81048D0F8343801F044
:102C80000F02D340DB01DBB2234300EB411000F520
:102C90001060806818405DF8044B7047406900F090
:102CA0000100704738B50546C36823F0C043C360D0
:102CB000012913D019BBC36843F08043C3600024CB
:102CC0000A2000F021FD0A342846FFF7E7FF08B18B
:102CD000C72CF5D9C82C14D0002038BDC36843F0E8
:102CE0000053C36000240A2000F00EFD0A34284679
:102CF000FFF7D4FF0128EDD0C72CF4D9EAE7012073
:102D0000EBE70120E9E7D0F8003923F4FF6323F073
:102D10000703C0F80039D0F8043843F48073C0F8D2
:102D2000043800207047000010B4046C154B9C421E
:102D300003D9D0F8003B002B16DB0024C0F8104B61
:102D4000D0F8104B44F40024C0F8104BD0F8104BCE
:102D500044F01804C0F8104BD0F8104B44F0C044B5
:102D6000C0F8104B012903D000205DF8044B7047D8
:102D7000C0F8142BD0F8003B43F08023C0F8003B90
:102D8000F2E700BF0A30544F002800F0E08170B530
:102D900082B00446036813F0010F3BD09F4B9B6841
:102DA00003F00C03042B2CD09C4B9B6803F00C030A
:102DB000082B21D06368B3F5803F4FD0B3F5A02F27
:102DC00052D0964B1A6822F480321A601A6822F4A4
:102DD00080221A606368002B50D000F08FFC0546FB
:102DE0008E4B1B6813F4003F14D100F087FC401B8E
:102DF0006428F5D90320B1E1884B5B6813F4800F98
:102E0000D8D0864B1B6813F4003F03D06368002BB7
:102E100000F09F81236813F0020F54D07F4B9B6812
:102E200013F00C0F3ED07D4B9B6803F00C03082B76
:102E300033D0E368002B68D0794B01221A6000F090
:102E40005DFC0546754B1B6813F0020F54D100F072
:102E500055FC401B0228F5D903207FE16F4A136817
:102E600043F480331360B5E76C4B1A6842F4802258
:102E70001A601A6842F480321A60ABE700F03EFC38
:102E80000546664B1B6813F4003FC3D000F036FCC8
:102E9000401B6428F5D9032060E1604B5B6813F4A4
:102EA000800FC6D15D4B1B6813F0020F03D0E3689F
:102EB000012B40F05081594A136823F0F80321692F
:102EC00043EAC1031360236813F0080F42D063691B
:102ED0006BB3534B0122C3F8802E00F00FFC054664
:102EE0004E4B5B6F13F0020F34D100F007FC401B18
:102EF0000228F5D9032031E1484A136823F0F8038A
:102F0000216943EAC1031360DDE7454B00221A60E3
:102F100000F0F4FB0546414B1B6813F0020FD2D0C2
:102F200000F0ECFB401B0228F5D9032016E13C4BD6
:102F30000022C3F8802E00F0E1FB0546374B5B6FA3
:102F400013F0020F06D000F0D9FB401B0228F5D980
:102F5000032003E1236813F0040F77D02F4B1B6C81
:102F600013F0805F33D1002301932C4B1A6C42F095
:102F700080521A641B6C03F080530193019B01255E
:102F8000284B1B6813F4807F23D0A368012B34D017
:102F9000052B38D0214B1A6F22F001021A671A6FE5
:102FA00022F004021A67A368002B3DD000F0A6FBB4
:102FB00006461A4B1B6F13F0020F46D100F09EFB22
:102FC000801B41F288339842F3D90320C6E00025E4
:102FD000D6E7144A136843F48073136000F08EFB45
:102FE0000646104B1B6813F4807FCED100F086FBA1
:102FF000801B0228F5D90320B0E0084A136F43F084
:1030000001031367CFE7054B1A6F42F004021A67FA
:103010001A6F42F001021A67C5E700BF003802408C
:10302000000047420070004000F068FB0646524B2B
:103030001B6F13F0020F08D000F060FB801B41F201
:1030400088339842F3D9032088E0EDB9A369002BB7
:1030500000F08380484A926802F00C02082A51D09E
:10306000022B17D0454B00221A6600F047FB04469E
:10307000414B1B6813F0007F42D000F03FFB001B68
:103080000228F5D9032069E03B4A136C23F08053F2
:103090001364DBE7394B00221A6600F02FFB05466C
:1030A000354B1B6813F0007F06D000F027FB401B58
:1030B0000228F5D9032051E0E369226A1343626ACA
:1030C00043EA8213A26A5208013A43EA0243E26ADF
:1030D00043EA0263284A5360284B01221A6600F033
:1030E0000DFB0446244B1B6813F0007F06D100F053
:1030F00005FB001B0228F5D903202FE000202DE05E
:1031000000202BE0012B2BD01B4B5B6803F48001CC
:10311000E269914226D103F03F02216A8A4223D11B
:10312000616A47F6C0721A40B2EB811F1ED103F4E8
:103130004031A26A5208013AB1EB024F18D103F0B4
:103140007063E26AB3EB026F14D1002006E0012045
:103150007047012002E0012000E0002002B070BDB5
:103160000120FBE70120F9E70120F7E70120F5E75F
:103170000120F3E70120F1E7003802400000474258
:1031800008B5314B9B6803F00C03042B57D0082B78
:1031900057D12D4B5A6802F03F025B6813F4800F41
:1031A0002AD0294B5968C1F3881C4FEA4C11B1EB66
:1031B0000C006EEB0E0E4FEA8E1343EA9063810112
:1031C000091A63EB0E03DB0043EA5173C90011EBEC
:1031D0000C0C43F10003590200234FEA4C2041EA52
:1031E000DC51FDF75DF8184B5B68C3F30143013315
:1031F0005B00B0FBF3F025E0134B5968C1F3881C6A
:103200004FEA4C11B1EB0C006EEB0E0E4FEA8E1331
:1032100043EA90638101091A63EB0E03DB0043EA82
:103220005173C90011EB0C0C43F100039902002308
:103230004FEA8C2041EA9C51FDF732F8D3E703486E
:1032400000E0034808BD00BF0038024000127A00C9
:103250000024F400002800F09B8070B50D46044661
:103260004F4B1B6803F007038B4208D2CBB24C4A8A
:103270001370136803F007038B4240F08B802368C0
:1032800013F0020F17D013F0040F04D0454A9368CF
:1032900043F4E0539360236813F0080F04D0414ACD
:1032A000936843F4604393603E4A936823F0F003CD
:1032B000A1680B439360236813F0010F32D0636859
:1032C000012B21D09A1E012A25D9364A126812F004
:1032D000020F61D033498A6822F0030213438B60E6
:1032E00000F00CFA06462F4B9B6803F00C03626853
:1032F000B3EB820F16D000F001FA801B41F2883345
:103300009842F0D9032042E0264A126812F4003FA6
:10331000E0D101203BE0234A126812F0007FD9D1AE
:10332000012034E01E4B1B6803F00703AB4207D9B2
:10333000EAB21B4B1A701B6803F00703AB422DD196
:10334000236813F0040F06D0164A936823F4E05361
:10335000E1680B439360236813F0080F07D0114A0C
:10336000936823F46043216943EAC1039360FFF744
:1033700007FF0C4B9B68C3F303130B4AD35CD84085
:103380000A4B18600A4B186800F06CF9002070BDF9
:10339000012070470120FAE70120F8E70120F6E755
:1033A000003C02400038024070AB0008A40000203E
:1033B000A0000020014B1868704700BFA400002047
:1033C00000230F2B00F2D28070B582B060E08568D8
:1033D0005E000324B44025EA0405CC68B4402C43C5
:1033E0008460456825EA02054C68C4F300129A40DF
:1033F0002A4342605AE0DC08083450F8246003F0A5
:10340000070295000F22AA4026EA020E0A69AA4086
:1034100042EA0E0240F824205CE0042200E0002290
:1034200002FA0EF22A430234514D45F82420514A43
:1034300094686FEA0C0224EA0C054E6816F4801FAB
:1034400001D04CEA04054B4CA560E46802EA04058F
:103450004E6816F4001F01D04CEA0405454CE560A7
:10346000646802EA04054E6816F4003F01D04CEA95
:103470000405404C6560246822404D6815F4803F87
:1034800001D04CEA04023B4C226001330F2B6BD875
:1034900001229A400C6804EA020C32EA0404F4D1D6
:1034A0004C6804F00304013C012C90D94A6802F0F6
:1034B0000302032A09D0C4685D000322AA4024EA5B
:1034C00002048A68AA402243C2604A6802F00302EA
:1034D000022A90D004684FEA430E032202FA0EF249
:1034E00024EA02044A6802F0030202FA0EF22243BE
:1034F00002604A6812F4403FC7D0002201921E4A7F
:10350000546C44F480445464526C02F4804201923E
:10351000019A9C08A51C164A52F8255003F0030294
:103520004FEA820E0F2202FA0EF225EA0205134A32
:1035300090423FF474AF02F5806290420ED002F5E3
:10354000806290420CD002F5806290420AD002F56F
:10355000806290423FF461AF072261E701225FE79A
:1035600002225DE703225BE702B070BD704700BF37
:1035700000380140003C0140003802400000024099
:103580000AB181617047090481617047074AD368B5
:1035900023F4E0631B041B0C000200F4E06003430F
:1035A00043F0BF6343F40033D360704700ED00E0A5
:1035B00000B5194BDB68C3F30223C3F1070CBCF160
:1035C000040F28BF4FF0040C03F1040EBEF1060FE8
:1035D00018D9033B4FF0FF3E0EFA0CFC21EA0C0118
:1035E00099400EFA03F322EA0303194300280BDB88
:1035F0000901C9B200F1604000F5614080F8001394
:103600005DF804FB0023E5E700F00F000901C9B2F3
:10361000024B1954F4E700BF00ED00E014ED00E0A8
:10362000002807DB00F01F02400901239340024AF3
:1036300042F82030704700BF00E100E00138B0F1EF
:10364000807F0BD24FF0E0235861054AF02182F8C9
:1036500023100020986107221A61704701207047EB
:1036600000ED00E010B504460E4B18784FF47A7365
:10367000B3FBF0F30C4A1068B0FBF3F0FFF7DEFF8A
:1036800068B90F2C01D901200AE0002221464FF031
:10369000FF30FFF78DFF054B1C60002000E001208C
:1036A00010BD00BF9C000020A4000020A00000204E
:1036B00008B50B4B1A6842F400721A601A6842F49B
:1036C00080621A601A6842F480721A600320FFF761
:1036D0005DFF0F20FFF7C6FFFCF778FF002008BD55
:1036E000003C0240034A1168034B1B780B441360F3
:1036F000704700BF941D00209C000020014B1868FB
:10370000704700BF941D002038B50446FFF7F6FF50
:103710000546B4F1FF3F02D0044B1B781C44FFF771
:10372000EDFF401BA042FAD338BD00BF9C00002033
:10373000034AD2F8883043F47003C2F888307047E7
:1037400000ED00E098B108B503460020C3F8B802C8
:10375000C3F8C402C3F8D00209B1C3F8B4120121FE
:1037600083F89C121A701846FDF760FE08BD03200E
:10377000704710B582B00023ADF8063089B1044619
:10378000C0F8B812CB6A23B10DF106009847C4F80F
:10379000D002D4F8D8320133C4F8D832002002B0B5
:1037A00010BD0320FBE708B5FDF79FFE08BD08B577
:1037B000D0F8B83213B11B68984708BD0020FCE769
:1037C00008B5D0F8B8325B68984700B908BD032047
:1037D000FCE738B5044600F2AA25284600F0CEF9E9
:1037E0000123C4F89432B4F8B032C4F8983294F893
:1037F000AA1201F01F03012B0DD0022B10D02BB108
:1038000001F080012046FDF78BFE03E029462046AB
:1038100000F08AFB38BD2946204600F0C0FBF9E7DE
:103820002946204600F0FDFBF4E7F8B504460123E5
:1038300080F89C320023C0F894324360C0F8A43270
:1038400080F8A032D0F8B832E3B15B68E3B1002170
:1038500098470746D0B94023002211462046FDF77D
:103860004CFE012684F863614025A4F860512B4684
:10387000002280212046FDF740FE84F82360258445
:103880003846F8BD0027E6E70027E4E70327E2E72C
:1038900001740020704790F89C32DBB2042B04D0F6
:1038A00090F89C32DBB280F89D32042380F89C3281
:1038B0000020704790F89C32DBB2042B01D000202E
:1038C000704790F89D32DBB280F89C32F7E708B57C
:1038D00090F89C32DBB2032B01D0002008BDD0F859
:1038E000B832002BF9D0DB69002BF6D09847F4E70B
:1038F00008B5D0F8D432AE3350F823205AB190F83E
:103900009C32DBB2032B01D0002008BD136A23B127
:1039100098470020F9E70320F7E70020F5E708B50E
:10392000D0F8D432AE3350F823205AB190F89C32FC
:10393000DBB2032B01D0002008BD536A23B19847A6
:103940000020F9E70320F7E70020F5E700207047A3
:1039500008B5012380F89C32D0F8B83223B15B68F7
:103960000179984710B908BD0020FCE70320FAE769
:10397000002070470020704738B504460D460029E6
:1039800046D1D0F89432032B01D0084638BDD0F888
:103990005831B0F86021934212D890F8AA3203F05F
:1039A0001F03012B1BD0022B20D0084694F89C3219
:1039B000DBB2032B1FD0204600F09EFC2846E5E733
:1039C0009B1AC0F85831D0F864111144C0F8641142
:1039D0009A4238BF1A4600F087FC2846D6E790F88E
:1039E000AE12FFF7C5FF0028E5D1DFE790F8AE1271
:1039F000FFF7C0FFF7E700F1AE0354F823301A6970
:103A0000002AD8D0C4F8D4021B6920469847D2E7D0
:103A100001F07F01FFF7AEFF90B994F89C32DBB262
:103A2000032BB3D100F1AE0354F823309A69002A76
:103A3000ACD0C4F8D4029B69294620469847A5E734
:103A40000020A3E738B504460D4600294CD1D0F834
:103A50009432022B07D094F8A00218B1002384F806
:103A6000A032284638BD8269018C8A420ED88A422B
:103A70001AD094F89C32DBB2032B29D08021204647
:103A8000FDF74EFD204600F042FCE4E7521A826149
:103A9000436A1944416200F00EFC00231A4619469D
:103AA0002046FDF75DFDD6E743699942E1D8D0F89D
:103AB00098229342DDD20022114600F0FCFB002147
:103AC000C4F898120B460A462046FDF749FDC2E7A6
:103AD000D4F8B832DA68002AD0D00022C4F8D42250
:103AE000DB6820469847C9E741F08001FFF742FFB5
:103AF00090B994F89C32DBB2032BB3D100F1AE0342
:103B000054F823305A69002AACD0C4F8D4025B6957
:103B1000294620469847A5E70020A3E703780A88AE
:103B200013440B80037818447047428803789A4204
:103B300018D930B583B004460D46ADF8063062881A
:103B4000BDF806309A420AD90DF10601FFF7E6FFEB
:103B50004378052BF3D18378AB42F0D100E000200D
:103B600003B030BD002070470346002002E0013062
:103B7000C0B201331A78002AF9D170470B7803706C
:103B80004B7843708B78CA7843EA022343800B79E1
:103B90004A7943EA022383808B79CA7943EA022374
:103BA000C380704710B504468021FDF7B9FC0021A1
:103BB0002046FDF7B5FC10BD30B583B004460D4678
:103BC0000023ADF806304A88130A013B062B00F2A9
:103BD000AB80DFE803F0041F33A9A98D9A00D0F869
:103BE000B4321B680DF10601007C9847EA88002A70
:103BF00000F0A380BDF80630002B00F099809A42B7
:103C000028BF1A46ADF806200146204600F045FBC5
:103C100003B030BD037C43B9D0F8B8329B6A0DF1D4
:103C20000600984702234370E0E7D0F8B832DB6A19
:103C30000DF10600984702234370D7E7D2B2052A58
:103C400052D8DFE802F003101D2A3744D0F8B4320E
:103C50005B6823B10DF10601007C9847C6E7294651
:103C6000FFF7A0FFD4E7D0F8B4329B6823B10DF181
:103C70000601007C9847B9E72946FFF793FFC7E79D
:103C8000D0F8B432DB6823B10DF10601007C98470F
:103C9000ACE72946FFF786FFBAE7D0F8B4321B69D4
:103CA00023B10DF10601007C98479FE72946FFF7F5
:103CB00079FFADE7D0F8B4325B6923B10DF10601AD
:103CC000007C984792E72946FFF76CFFA0E7D0F801
:103CD000B4329B6923B10DF10601007C984785E75A
:103CE0002946FFF75FFF93E72946FFF75BFF8FE762
:103CF000037C33B9D0F8B8325B6B0DF106009847FE
:103D000074E72946FFF74EFF82E7037C43B9D0F8FA
:103D1000B8321B6B0DF1060098470723437065E727
:103D20002946FFF73FFF73E72946FFF73BFF6FE7A1
:103D300029462046FFF736FF6AE7204600F0DCFA06
:103D400066E738B504468B88FBB9CB88EBB94B885E
:103D50007F2B1AD803F07F0590F89C32DBB2032B3F
:103D60000CD080F89E522946FDF7EAFB204600F071
:103D7000C3FA35B1022384F89C3209E0FFF712FF41
:103D800006E0012384F89C3202E02046FFF70AFF98
:103D900038BD000070B504460E468D782F4B1D705F
:103DA000012D10D890F89C32DBB2022B0FD0032BE0
:103DB00026D0FFF7F7FE294B19782046FFF700FDC4
:103DC0000325284670BDFFF7EDFE0325F9E7A5B1F1
:103DD00045602946FFF7EBFC054638B131462046E1
:103DE000FFF7E0FE022384F89C32EAE7204600F069
:103DF00083FA032384F89C32E3E700F07DFAE0E7DE
:103E0000CDB141688D4225D0C9B2FFF7D9FC134B23
:103E1000197861602046FFF7CAFC0546B0B131460B
:103E20002046FFF7BFFE21792046FFF7C9FC022399
:103E300084F89C32C5E7022380F89C32456029460D
:103E4000FFF7BEFC204600F057FABAE7204600F024
:103E500053FAB6E700F050FA0025B2E7981D0020AB
:103E600008B5CB88012B0BD190F89C32DBB2022B2A
:103E700009D9032B09D10122011D00F00EFA01E03E
:103E8000FFF790FE08BD5BB213B9FFF78BFEF9E7B1
:103E90000146002341F8083F012200F0FEF9F1E756
:103EA00008B590F89C32013B022B12D8CB88022B2C
:103EB0000CD10123C360D0F8A4320BB10323C3603B
:103EC000022200F10C0100F0E8F908BDFFF76AFEDC
:103ED000FBE7FFF767FEF8E708B54B88012B04D036
:103EE000022B07D0FFF75EFE08BDC0F8A43200F039
:103EF00003FAF9E78B881B0A80F8A03200F0FCF97E
:103F0000F2E708B590F89C32013B022B09D84B88A8
:103F1000012B00D008BD0023C0F8A43200F0ECF95A
:103F2000F8E7FFF73FFEF5E738B50C7804F06004DA
:103F3000202C06D0402C04D06CB1FFF733FE0024B7
:103F400007E0D0F8D432AE3350F823309B6898475E
:103F50000446204638BD4D78092D1DD8DFE805F010
:103F600012191C161C08051C0F0BFFF725FEF0E7A5
:103F7000FFF7E7FEEDE7FFF70DFF0446E9E7FFF780
:103F80006FFFE6E7FFF78CFF2C46E2E7FFF7A4FFA1
:103F9000DFE7FFF7B6FFDCE7FFF704FED9E770B510
:103FA00005460C460B7803F06003202B07D0402B0E
:103FB00005D023B1FFF7F6FD0026304670BD95F819
:103FC0009C32013B022B26D82179012905D92146B3
:103FD0002846FFF7E7FD0026EFE72846FFF7C8FC75
:103FE00068B900F1AE0255F82220916889B1C5F890
:103FF000D4029368214628469847064600E00326E7
:10400000E388002BD9D1002ED7D1284600F074F9CF
:10401000D3E70326F4E721462846FFF7C3FD002631
:10402000CBE72DE9F04106460D468B88DFB20C78D0
:1040300004F06004202C08D0402C06D0DCB1FFF73F
:10404000B1FD00242046BDE8F08139463046FFF737
:1040500091FC0446002840F0F980C6F8D40200F133
:10406000AE0356F823309B68002BEBD02946304630
:1040700098470446E6E791F80180B8F1010F31D086
:10408000B8F1030F05D0B8F1000F67D0FFF78AFD34
:10409000D8E790F89C32DBB2022B04D0032B12D06D
:1040A000FFF780FDCEE70FB1802F04D129463046BF
:1040B000FFF778FDC6E73946FDF732FA8021304632
:1040C000FDF72EFABEE74B8823B91FB1802F01D030
:1040D000CB881BB1304600F00FF9B3E73946FDF746
:1040E0001FFAF7E790F89C32DBB2022B04D0032BC7
:1040F00012D0FFF757FDA5E70FB1802F04D1294655
:104100003046FFF74FFD9DE73946FDF709FA80215C
:104110003046FDF705FA95E74B88002B92D117F052
:104120007F0F17D1304600F0E7F839463046FFF7E9
:1041300021FC002886D1C6F8D40200F1AE0256F860
:1041400022209268002A00F083802946304690475A
:10415000044677E73946FDF7EBF9E3E790F89C2250
:10416000D2B2022A05D0032A28D0FFF71BFD44460D
:1041700068E70FB1802F14D113F0800F15D107F02D
:104180007F0707EB8707B90001F5A87131440431B7
:10419000002301F80E3F0222304600F07EF844462C
:1041A00050E7FFF7FFFC44464CE707F07F0707EBBB
:1041B0008707B900103131440431E9E75BB2002BC5
:1041C00020DB07F00F0202EB820200EB820292F882
:1041D000634124B3002B25DB07F07F0303EB83034C
:1041E0009C0004F5A874344404340FB1802F22D10C
:1041F0000023A373022204F10E01304600F04DF8B3
:1042000044461FE707F00F0202EB820200EB820236
:1042100092F82340002CDDD1FFF7C4FC12E7FFF732
:10422000C1FC0FE707F07F0303EB83039C0010340E
:1042300034440434D9E739463046FDF72BF910B140
:104240000123A373D6E70023A373D3E70024F9E681
:104250000446F7E600B370B50D4616460446FFF770
:1042600083FC01304300B3F5007F06D89BB2338056
:104270002B7003236B7002230AE04FF40073F6E700
:10428000EA5401345A1CD2B20021A9540233DBB2E1
:104290002278002AF4D170BD704708B51346022277
:1042A000C0F894224361416283610A460021FDF710
:1042B0004FF9002008BD08B513460A460021FDF756
:1042C00047F9002008BD08B513460322C0F8942220
:1042D000C0F85431C0F86411C0F858310A460021C2
:1042E000FDF73EF9002008BD08B513460A46002137
:1042F000FDF736F9002008BD08B50422C0F8942265
:1043000000231A461946FDF723F9002008BD08B519
:104310000522C0F8942200231A461946FDF720F919
:10432000002008BD10B5D0F8D43203F1B00250F827
:1043300022408CB100EB820043687BB194F800020C
:10434000FF280DD09B6894F8012221469847FF234F
:1043500084F80032002010BD0320FCE70020FAE7BB
:104360000020F8E70A23038000487047240100205A
:10437000F8B506460F4F82213846FFF7D6FB0546B3
:1043800001213846FFF7D1FB044681213846FFF76B
:10439000CCFB0DB11022AA711CB140222271002267
:1043A000627118B1402202710022427143233380AE
:1043B0000048F8BDE0000020F8B506460F4F822106
:1043C0003846FFF7B2FB054601213846FFF7ADFB43
:1043D000044681213846FFF7A8FB0DB11022AA71CF
:1043E0001CB1402222710022627118B14022027178
:1043F00000224271432333800048F8BDE0000020D2
:10440000F8B506460F4F82213846FFF78EFB05466A
:1044100001213846FFF789FB044681213846FFF722
:1044200084FB0DB11022AA711CB10022227102225C
:10443000627118B10022027102224271432333805B
:104440000048F8BDE000002038B5D0F8D432B033D1
:1044500050F8235095B10446FDF732F8C5F80C0228
:10446000D4F8D432B03304EB83046368DB6805F519
:104470000371D5F804029847002038BD0320FCE7FB
:1044800038B5D0F8C852D0F8D432B03350F8234001
:1044900084B301F00F0303EB830200EB8202526945
:1044A0004AB103EBC30C05EB8C05ED69B2FBF5FCDF
:1044B00005FB1C2292B10023C4F81432D0F8D43288
:1044C000B03300EB830043681B69ABB10A4604F5C7
:1044D0000471D4F808029847002038BD03EB830329
:1044E00000EB830300245C6123462246FDF730F88D
:1044F0002046F2E70320F0E70020EEE7F0B583B0B6
:10450000D0F8D43203F1B00250F8227000228DF8B6
:104510000720ADF80420002F7BD004460D46097813
:1045200011F0600634D0202E6CD1EA882AB311F045
:10453000800F07D16B7887F80032EA883F2A13D8BA
:10454000D2B212E0B03300EB83035B689B6839465C
:1045500068789847EA88072A28BF07223946204604
:10456000FFF79BFE002651E0402287F801223946E2
:104570002046FFF7A8FE002648E0B03300EB830496
:1045800063689B68002229466878984700263DE0CA
:104590006F780B2F31D8DFE807F006393030303034
:1045A00030303030162690F89C32DBB2032B04D02A
:1045B0002946FFF7F7FA032628E0022201A9FFF7B0
:1045C0006CFE3E4622E090F89C32DBB2032B04D016
:1045D0002946FFF7E7FA032618E001220DF107014B
:1045E000FFF75BFE12E090F89C32DBB2032B0DD09C
:1045F0002946FFF7D7FA032608E02946FFF7D2FA43
:10460000032603E02946FFF7CDFA0326304603B020
:10461000F0BD0326FAE738B504468121FCF778FFA0
:10462000002584F8375001212046FCF771FF84F8FB
:10463000775182212046FCF76BFF84F84B5065646C
:10464000D4F8D43203F1B00254F822209AB1B03336
:1046500004EB83035B685B689847D4F8D432B033CB
:1046600054F82300FCF736FFD4F8D432B03344F8C2
:104670002350C4F8BC52002038BD70B504464FF436
:104680000770FCF723FF002849D005464FF4077256
:10469000002105F0B7F8D4F8D432B03344F82350F1
:1046A000C4F8BC52237C002B41D14FF4007302228A
:1046B00081212046FCF721FF012684F837604FF462
:1046C0000073022231462046FCF717FF84F8776119
:1046D000102363640823032282212046FCF70DFF88
:1046E000012384F84B300026C5F80462D4F8D43294
:1046F000B03304EB83035B681B689847C5F814620A
:10470000C5F81862D5F8042262B3257C1DBB4FF4AE
:10471000007301212046FCF723FF284670BDD4F822
:10472000D432B033002244F823200225F5E7402399
:10473000022281212046FCF7E0FE012684F8376042
:104740004023022231462046FCF7D7FE84F87761E9
:1047500010236364BEE7402301212046FCF700FFDD
:104760000025DAE70225D8E739B1D0F8D432B033E2
:1047700000EB830041600020704703207047D0F8B1
:10478000D432B03350F823302BB1C3F80812C3F839
:1047900010220020704703207047D0F8D432B03385
:1047A00050F823301BB1C3F80412002070470320D7
:1047B000704708B5D0F8D432B03350F823209AB1FE
:1047C000D2F814320BB1012008BD0123C2F8143213
:1047D000D2F810328362D2F81032D2F80822812146
:1047E000FCF7B6FE0020EFE70320EDE710B5D0F8A8
:1047F000D432B03350F8232092B1047C44B94FF442
:104800000073D2F804220121FCF7AAFE204610BD55
:104810004023D2F804220121FCF7A2FE0024F5E790
:104820000324F3E710B503460C4A0D490D48006810
:1048300040B10C4800680344521A934206D8094A12
:10484000136010BD0748084C0460F2E704F070FFE5
:104850000C2303604FF0FF30F3E700BF000002209D
:10486000000400009C1D00202831002070B50C467B
:104870001646002506E0AFF30080214601F8010B43
:1048800001350C46B542F6DB304670BD70B50C46BE
:104890001646002504E014F8010BAFF30080013543
:1048A000B542F8DB304670BD4FF0FF3070474FF433
:1048B00000534B6000207047012070470020704774
:1048C00000207047002840F0F8802DE9F04383B0C5
:1048D00080467B4B1F78FCF791FA0020FCF798FA92
:1048E000784B1A88784B9A61784B1A88784B9A6182
:1048F000002400E00134032C07DCA742FAD0E0B228
:10490000FBF780FE704B9861F4E73846FBF77AFEC0
:1049100000046D4CA0616420FCF7F8FA6D4D2B8803
:10492000A3614FF47A70FCF7F1FA2B881B04A361A2
:1049300042F21070FCF7EAFA2B88A3614FF4FA7088
:10494000FCF7E4FA2B881B04A36143F69820FCF7DC
:10495000DDFA0020FCF752FA0720FCF759FA322062
:10496000FCF7D4FA594D2B881B04A4F50064A3610D
:104970000A20FCF7CBFAFCF7E3FA81462B88A36107
:10498000002417E06420FCF7C1FA0720FCF740FA86
:104990000A20FCF7BBFA4D4E33881B044C4DAB612B
:1049A000FCF7CEFA04F108036B4403F8040C3388D7
:1049B000AB610134022CE5DD19F0400F06D019F08F
:1049C000800F01D1012302E0002300E000239DF8C5
:1049D000041011F0400F06D011F0800F01D1012218
:1049E00002E0002200E000221A439DF8053013F097
:1049F000400F06D013F0800F01D1012302E0002305
:104A000000E0002313439DF8062012F0400F06D06B
:104A100012F0800F01D1012202E0002200E000220A
:104A200052EA030403D1B9F1000F00D151B1002CB7
:104A30003ED0294B01221A60284B1F70404603B01C
:104A4000BDE8F0830120FCF7D9F90720FCF7E0F975
:104A50000A20FCF75BFAEC20FCF766FA0520FCF76D
:104A600055FA184E33881B04174DAB610520FCF72F
:104A70004DFA3388AB614FF47A70FCF747FA0020A7
:104A8000FCF7BCF90720FCF7C3F93220FCF73EFA2B
:104A90000E4E33881B04A5F50065AB610A20FCF7B8
:104AA00035FAFCF74DFA3388AB610028BFD0C0E778
:104AB000094B00221A600120C1E70420704700BFA3
:104AC000A41D002020000020000C02401C0000203B
:104AD000000402401E000020A01D00202E01002026
:104AE00038BB70B50446164B1B6823B3154B1A78B8
:104AF000154B1B789A4201D0012070BDFCF77EF95E
:104B00000720FCF785F90A20FCF700FA0F4E3388DE
:104B10001B040F4DAB61FCF713FA3388AB6110F047
:104B2000400F0AD010F0800F01D12046E5E70320A6
:104B3000E3E7042070470120DFE70320DDE700BF43
:104B4000A01D00202E010020A41D00201C0000201C
:104B500000040240002840F0EC802DE9F0470F46A9
:104B600014469A468046002B00F0E580012B02D0C7
:104B70000120BDE8F0870120FCF740F90220FCF796
:104B800047F90520FCF7C2F90120FCF7CDF9022016
:104B9000FCF7BCF9694E33881B04694DAB610520F5
:104BA000FCF7B4F93388AB610A20FCF7AFF90320B6
:104BB000FCF72EF90520FCF7A9F9E0B2FCF7B4F9EF
:104BC0000220FCF7A3F933881B04AB610520FCF736
:104BD0009DF93388AB610A20FCF798F90420FCF7B3
:104BE00017F90520FCF792F9C4F30720FCF79CF9AC
:104BF0000220FCF78BF933881B04AB610520FCF71E
:104C000085F93388AB610A20FCF780F90520FCF7B1
:104C1000FFF80520FCF77AF9C4F30740FCF784F9A4
:104C20000220FCF773F933881B04AB610520FCF705
:104C30006DF93388AB610A20FCF768F90620FCF7B0
:104C4000E7F80520FCF762F9C4F3036040F0E000E8
:104C5000FCF76AF90220FCF759F933881B04AB61B1
:104C60000520FCF753F93388AB610A20FCF74EF9B5
:104C70000720FCF7CDF80520FCF748F92020FCF7C9
:104C800053F90220FCF742F933881B04AB6105207D
:104C9000FCF73CF93388AB616420FCF737F900205E
:104CA000FCF7ACF80720FCF7B3F84FF4FA70FCF708
:104CB0002DF94CF2503501E0002D19DDDFF8889018
:104CC000B9F800301B041F4EB3610220FCF71EF937
:104CD000FCF736F90446B9F80030B3613220FCF72E
:104CE00015F9013D14F0800FE6D114F0080FE3D060
:104CF0000DB950463DE70020FCF78AF80A20FCF782
:104D000005F9002410E0104E33881B040D4DAB61F3
:104D10000220FCF7FBF8FCF713F938553388AB6138
:104D20000220FCF7F3F80134B4F5007FEBDB4046DA
:104D30001FE70420704704201BE700BF200000206D
:104D4000000C0240000402401C000020002840F03B
:104D500013812DE9F0470F46144698468146002BF3
:104D600000F00C81012B02D00120BDE8F08701206A
:104D7000FCF744F80220FCF74BF80520FCF7C6F8D6
:104D80000120FCF7D1F80220FCF7C0F87D4E3388F3
:104D90001B047D4DAB610520FCF7B8F83388AB618F
:104DA0000A20FCF7B3F80320FCF732F80520FCF7E3
:104DB000ADF8E0B2FCF7B8F80220FCF7A7F83388AA
:104DC0001B04AB610520FCF7A1F83388AB610A2016
:104DD000FCF79CF80420FCF71BF80520FCF796F87C
:104DE000C4F30720FCF7A0F80220FCF78FF8338803
:104DF0001B04AB610520FCF789F83388AB610A20FE
:104E0000FCF784F80520FCF703F80520FCF77EF892
:104E1000C4F30740FCF788F80220FCF777F83388E2
:104E20001B04AB610520FCF771F83388AB610A20E5
:104E3000FCF76CF80620FBF7EBFF0520FCF766F8A3
:104E4000C4F3036040F0E000FCF76EF80220FCF7CA
:104E50005DF833881B04AB610520FCF757F83388F5
:104E6000AB610A20FCF752F80720FBF7D1FF0520C1
:104E7000FCF74CF83020FCF757F80220FCF746F816
:104E800033881B04AB610520FCF740F83388AB6125
:104E90006420FCF73BF80020FBF7B0FF0720FBF78E
:104EA000B7FF6420FCF732F84CF2503501E0002DDA
:104EB00019DDDFF8E0A0BAF800301B04334EB3610F
:104EC0000220FCF723F8FCF73BF80446BAF8003060
:104ED000B3613220FCF71AF8013D14F0800FE6D1DF
:104EE00014F0080FE3D00DB940463EE70120FBF770
:104EF00085FF0020FBF78CFF0A20FCF707F8002451
:104F000013E0385DFCF710F80120FBF7FFFF1D4EA2
:104F1000328812041C4DAA610220FBF7F7FF338888
:104F2000AB610120FBF7F2FF0134B4F5007FE8DB51
:104F30000020FBF763FF0720FBF76AFF4FF47A704E
:104F4000FBF7E4FF124D134E33881B040F4FBB6178
:104F50000220FBF7DBFFFBF7F3FF04463388BB615E
:104F60006420FBF7D3FF013D14F0800F01D0002D2A
:104F7000E9DC2DB14846F8E6042070470420F4E649
:104F80004046F2E620000020000C024000040240EF
:104F9000A08601001C0000200346A8B9032915D8EB
:104FA000DFE801F00204090E084670474FF4FA11D9
:104FB0001160184670474FF4007111601846704731
:104FC0000121116018467047042070470420704783
:104FD000064B1B78834205D0054B00221A60054B17
:104FE000FF221A70014B1870704700BFA41D0020EB
:104FF000A01D00202E01002008B5FFF7E9FF0020CA
:10500000034B1860034BFF221A70FFF75BFC08BDCF
:10501000A01D00202E0100204278007840EA0220E6
:105020007047C278837843EA0222437843EA022336
:10503000007840EA032070470170090A4170704708
:105040000170C1F307234370C1F307438370090E56
:10505000C1707047802807D99F2807D9DF2807D952
:10506000FC2807D9002070470020704701207047B6
:1050700000207047012070473F280BD97E280BD9AC
:1050800010F0800F02D148B100207047FC28FAD8F8
:1050900001207047002070470120704701207047B1
:1050A00002394369023B8B4204D9836A408901FB80
:1050B000003070470020704770B506460D4601F17C
:1050C0001A00FFF7A9FF3378032B00D070BD044608
:1050D00005F11400FFF7A0FF44EA0040F6E770B5C1
:1050E00006460C46154691B204F11A00FFF7A4FFDC
:1050F0003378032B00D070BD290C04F11400FFF7A6
:105100009BFFF8E738B500234B7283699BB30546D4
:105110000C460022134606E0BCF1090F0FD0A1187F
:105120004B72013263460A2B0ED803F1010CE96978
:10513000CB5C202BF6D0052BEED1E523ECE7A118B4
:105140002E2048720132EAE7224400235372EB69B1
:10515000DB7A03F03F032372E8691C30FFF761FF3D
:105160002060E8691630FFF757FFE080E8691830E3
:10517000FFF752FFA08038BD0146006820B3024609
:1051800013780132202B01D93A2BF9D13A2B01D0D7
:10519000002070470378A3F1300C5FFA8CFCBCF15F
:1051A000090F0ED80230904202D04FF0FF30704706
:1051B000A3F13000002802DD4FF0FF3070470A6095
:1051C00070474FF0FF3070474FF0FF30704738B5F1
:1051D0000D46044698B103689BB11A78A2B1818844
:1051E000DA88914203D0092000242C6038BD587819
:1051F000FFF776FC10F0010009D12468F5E70920DB
:10520000F3E71C460920F0E709200024EDE7092018
:105210000024EAE770B505790DB9284670BD04464B
:1052200000F130060123C26A31464078FFF78EFD57
:10523000054688B900232371E16A236ACB1AA26963
:105240009342EAD2E378022BE7D101230A443146A4
:105250006078FFF77BFDE0E70125DEE770B5C36A04
:105260008B4202D10026304670BD04460D46FFF742
:10527000D1FF06460028F6D101232A4604F1300169
:105280006078FFF767FC10B101264FF0FF35E5624B
:10529000E9E7000038B50446002303714FF0FF33FF
:1052A000C362FFF7DBFF00285AD104F22E20FFF77C
:1052B000B3FE054694F83030EB2B09D0E92B07D02C
:1052C000E82B05D04AF655239D4247D0032038BD30
:1052D0004AF655239D4237D004F13B00FFF79CFE70
:1052E00094F83D20431E1842ECD1B0F5007FE9D37D
:1052F000E8D8002AE6D0531E1A42E3D104F13E005A
:10530000FFF78AFE0028DDD094F84030013B012BE6
:10531000D8D804F14100FFF77FFE0028D2D004F175
:105320004300FFF779FE7F2806D804F15000FFF70D
:1053300078FEB0F5803FC5D304F14600FFF76CFE60
:105340000028BFD00020C2E70822064904F18200ED
:1053500004F020FA0028BFD10020B8E70220B6E709
:105360000420B4E780AB000870B584B006460D4653
:105370000021FFF78FFF022803D02BD855B300245C
:1053800000E00024032C0ED806F13000230103F5C1
:10539000E3731844FFF745FE04AB03EB840343F8C3
:1053A000100C0134EEE70DB16C1E0AE02C4608E04B
:1053B0003046FFF76FFF6DB901280BD90134032C7C
:1053C00008D804AB03EB840353F8101C0029EFD179
:1053D0000320F0E704B070BD2DE9F84F0D461646E6
:1053E00000230B60FFF7C8FE0028C0F218819F4B16
:1053F00053F82040002C00F016812C6006F0FE06C9
:10540000237873B16078FFF76BFB10F0010508D1CA
:10541000002E00F0058110F0040F00F001810A2534
:10542000FEE0002323706078FFF74CFA10F00105CE
:1054300040F0FB801EB110F0040F40F0F880002116
:105440002046FFF791FF042800F0F380012800F2C6
:10545000F280E66A04F13B00FFF7DEFDB0F5007F65
:1054600040F0EB8004F14600FFF7D6FD074620B977
:1054700004F15400FFF7D5FD0746A76194F84020DA
:10548000E270531EDBB2012B00F2D98007FB02F859
:1054900094F83D90A4F80A90B9F1000F00F0D18083
:1054A00009F1FF3319EA030F40F0CD8004F1410008
:1054B000FFF7B2FD8246208110F00F0F40F0C5804B
:1054C00004F14300FFF7A8FD834620B904F1500022
:1054D000FFF7A7FD834604F13E00FFF79DFD02465E
:1054E000002800F0B48000EB080303EB1A139B457F
:1054F000C0F0AF80ABEB030BBBFBF9F1CB45C0F0C9
:10550000AA805B48814210D94FF0000B4FF6F5702E
:10551000814201D84FF0020B40F6F570814207D965
:10552000BBF1000F06D10D257AE04FF0030BEDE73C
:105530004FF0010B01F10209C4F81490E661324406
:1055400022623344A362BBF1030F25D0BAF1000FEE
:1055500000F0878042446262BBF1020F2DD009EB5C
:10556000490309F0010909EB530909F2FF13B7EBED
:10557000532F78D34FF0FF332361E36080236371AF
:10558000BBF1030F1CD084F800B03A4A13880133F2
:105590009BB21380E38043E004F15A00FFF73CFD27
:1055A00000285AD1BAF1000F59D104F15C00FFF77D
:1055B00038FD60624FEA8909D7E74FEA4909D4E725
:1055C00004F16000FFF728FD0128DCD1711C2046A2
:1055D000FFF744FE0028D6D10023637104F22E2089
:1055E000FFF71AFD4AF655239842CCD104F130005A
:1055F000FFF717FD204B9842C5D104F50570FFF762
:1056000010FD1E4B9842BED104F50670FFF709FD50
:10561000206104F50770FFF704FDE060B3E70B2598
:105620002846BDE8F88F0C25FAE70325F8E70A2598
:10563000F6E70125F4E70D25F2E70D25F0E70D2546
:10564000EEE70D25ECE70D25EAE70D25E8E70D254A
:10565000E6E70D25E4E70D25E2E70D25E0E70D255A
:10566000DEE70D25DCE70D25DAE700BFA81D0020E9
:10567000F5FFFF0FAC1D0020525261417272416173
:105680002DE9F04701297ED907460C4616464369A5
:105690008B427AD90378022B45D0032B57D0012BAC
:1056A00003D002252846BDE8F08701EB5108016AC6
:1056B00001EB5821FFF7D2FD05460028F2D107F192
:1056C000300A08F10109C8F3080814F001041FD0DA
:1056D0001AF9083003F00F03320102F47F6213431A
:1056E000DBB20AF8083001233B71396A01EB59211A
:1056F0003846FFF7B3FD05460028D3D1C9F30809A2
:1057000044B1C6F307120AF8092001233B71C9E727
:10571000F3B2E6E71AF9092022F00F02C6F30326D6
:105720003243D2B2EFE7016A01EB1421FFF796FD95
:1057300005460028B6D107F13000640004F4FF7478
:10574000B1B22044FFF778FC01233B71AAE7016A5C
:1057500001EBD411FFF782FD05460028A2D126F007
:10576000704607F13003A40004F4FE741C44204684
:10577000FFF757FC00F0704131432046FFF760FC13
:1057800001233B718EE702258CE702258AE7F8B5F5
:105790000568012956D90C466B698B4254D92B7880
:1057A000022B2DD0032B3BD0012B01D001204AE04E
:1057B00001EB5106296A01EB56212846FFF74EFD01
:1057C00010B14FF0FF303EE0771CC6F308062E44C0
:1057D00096F83060296A01EB57212846FFF73EFD15
:1057E000A0BBC7F308073D4495F8300046EA002007
:1057F00014F0010F01D0000925E0C0F30B0022E0F6
:10580000296A01EB14212846FFF728FD08BB05F1A2
:105810003000640004F4FF742044FFF7FDFB12E045
:10582000296A01EBD4112846FFF718FDA0B905F14C
:105830003000A40004F4FE742044FFF7F2FB20F0D3
:10584000704000E00120F8BD0120FCE74FF0FF3080
:10585000F9E74FF0FF30F6E74FF0FF30F3E72DE9BF
:10586000F041D0F80080B1F5001F40D206460F4647
:1058700011F01F0F3DD1016184682CB998F80030F8
:10588000022B01D9D8F82440B4B9B8F80830B3EBEA
:10589000571F30D9D8F82430B3617461B36993B31A
:1058A00003EB5723B36108F13003C7F30801194430
:1058B000F1610020BDE8F081B8F80A506D02AF42F6
:1058C0000FD321463046FFF762FF0446B0F1FF3F99
:1058D00013D0012813D9D8F81430834211D97F1B73
:1058E000EDE721464046FFF7DBFBB061D5E702203C
:1058F000E0E70220DEE70220DCE70120DAE7022011
:10590000D8E70220D6E70220D4E72DE9F04105468A
:1059100006680F4651B9D6F80C80B8F1000F12D0C6
:105920007369434511D84FF001080EE0FFF72FFFD0
:105930000346012868D9B0F1FF3F6AD072698242FC
:1059400067D8B84601E04FF001083369002B60D0FA
:10595000B84501D0444640E008F101047369A34210
:1059600000D8022421462846FFF711FF03460128EC
:105970004FD0B0F1FF3F4CD038B1F368012BE9D9DB
:1059800072699A42E6D99846E4E7002CE2D04FF0DB
:10599000FF3221463046FFF773FE034600B92FBBA6
:1059A0005BBBF46032697369023B9A4201D8013AE9
:1059B0003261737943F001037371234629E0214674
:1059C0002846FFF7E4FE03460028E0D0012820D057
:1059D000B0F1FF3F1DD044451AD001347369A34292
:1059E000EDD8B8F1010F11D90224E8E72246394673
:1059F0003046FFF745FE0346D2E7012B01D00123D5
:105A000007E04FF0FF3304E0012302E0002300E051
:105A100000231846BDE8F081F8B50C460568012959
:105A20002ED9064611466B69A3422BD94AB14FF0D5
:105A3000FF322846FFF724FE074610B123E0A242BA
:105A400021D9274621463046FFF7A1FE0446E0B1A2
:105A500001281CD0B0F1FF3F1BD000223946284658
:105A6000FFF70EFE074670B92B696A69911E8B42DB
:105A7000E5D201332B616B7943F001036B71DEE7F3
:105A8000022700E002273846F8BD0027FBE702277F
:105A9000F9E70127F7E738B5044605688169284624
:105AA000FFF7DCFB20B9E369E5221A7001232B71B3
:105AB00038BDF8B505460C46FFF7ACFB08B1012030
:105AC000F8BD21462846FFF7EBFA0646E86205F1E5
:105AD00030074FF400720021384603F093FE002493
